:020000040800F2
:10000000A041002091720008FD700008FF700008F8
:10001000017100080371000805710008000000006C
:10002000000000000000000000000000456800081B
:100030000771000800000000ED6700080971000862
:10004000B5720008B9720008BD720008C1720008DC
:10005000C5720008C9720008CD720008D17200088C
:10006000D5720008D9720008DD72000821710008FD
:1000700023710008E1720008E5720008E9720008C7
:10008000ED72000800000000F1720008F57200082F
:1000900025710008F9720008FD720008017300085C
:1000A00005730008097300080D7300081173000838
:1000B00015730008197300081D73000821730008E8
:1000C00025730008297300082D7300083173000898
:1000D00035730008397300083D7300084173000848
:1000E00045730008497300084D73000851730008F8
:1000F00055730008597300085D7300080000000084
:100100000000000061730008000000006573000833
:1001100069730008000000006D7300087173000827
:1001200075730008797300087D73000881730008F7
:100130008573000800000000000000003171000815
:10014000897300088D7300080000000000000000A3
:10015000000000000000000000000000000000009F
:100160000000000000000000000000009173000883
:10017000957300080000000000000000000000006F
:10018000000000009973000800000000000000005B
:10019000000000000000000000000000000000005F
:1001A00000000000000000009D730008A17300081B
:1001B000A5730008A9730008AD73000800000000D3
:1001C00000000000B1730008000000000000000003
:1001D000B5730008B973000878B585B0040008BF8E
:1001E00001204CD004F52A75687820B900212970C7
:1001F000204600F01BFD032068700026206800F0F8
:1002000037FE002128200EE000FB01F222442832B4
:10021000012353701170D1810023491CD6701361E2
:1002200056619361C9B262689142EDD300210DE03D
:1002300000FB01F2224402F5B472002311705370E6
:10024000491CD370136153619361C9B26668B142AE
:10025000EED383B0211D6846202201F0BFFA0EBC08
:10026000206800F00BFE002084F824000121697052
:10027000E069012804BF204601F0D6FA002006B04C
:1002800070BD10B500F0F5FB01D1022010BD00F0EB
:1002900004F800F0E5FD00F0E5BB012084F8A802B9
:1002A000206870472DE9FE4F0546286801F06AFA7C
:1002B00001041CD4420540F1888200F050FB4FF647
:1002C000FF308A8802408A80284600F0F7FC2846E2
:1002D00003B0BDE8F04F0021D0E3012803D100F0C6
:1002E00035FB002202803978284600F0DAFC2F68BE
:1002F00007F144010888020440F1F1820A8812F0F3
:100300000F00009048F280084BF68F7B40F68F7408
:1003100048F60F7640F0A480D0062BD429680A88CE
:100320001640084646F40046068005F12404286875
:10033000B0F85010227901EBC203C01800F202405D
:100340000088A169C0F3090020620844A06100216F
:10035000284600F0A6FC20780028C8D0E0690028D4
:10036000C5D12178286841F08001A0F84C10002107
:100370002170BCE728680088020505F5B4761AD517
:100380008889317800EBC1023A4402F2064205F551
:100390002C711388C3F30903F3613846F28801F026
:1003A0000AFA286801880C4044F08004048028463A
:1003B00000F067FC9BE7000499D529680A8814407F
:1003C000084644F0800404802868B0F85010327861
:1003D00000F08DFA1B88C3F30903002BF3611CBFE7
:1003E000716900290AD0F28801F0E5F97069F169B4
:1003F000014471612846002100F049FC2868018809
:100400000A05D7D40146B1F85020811830693F2839
:1004100001F2064108D3420910F01F0F08BF521E17
:10042000900240F400400FE048B9088848F2FF32DB
:10043000104008800B8843F400430B8005E042081D
:10044000C00748BF521C90020880286801880BEA48
:10045000010181F4405148EA0108A0F8008046E714
:100460002868009930F82190084628214843291827
:100470005FEA0940019148F68F7A40F19A80296835
:10048000009831F8201028680C40009944F080044E
:1004900020F82140019A02F5B477387B70B92868BA
:1004A000B0F850103A7800F022FA1C88C4F309041E
:1004B000002C6AD0FA887969234664E0F87802282B
:1004C00048F2C0022ED12C68B9695FEA49433B78F3
:1004D000A446B4F8504004EBC30409F04000A4441F
:1004E00011D50CF2024C00F0FCF92CBF091B0021C5
:1004F000B96109B900F017FA08B100F00AFA002C46
:1005000043D03A893CE00CF2064C00F0EAF92CBFEB
:10051000091B0021B96109B900F005FA68BB00F0B8
:10052000F8F92AE02968387831F820300AEA03031C
:100530000C461A4324F8202038782968024631F8FE
:10054000223059040ED52A68B2F8501001EBC000D1
:10055000101800F202400488C4F30904002C14D0DF
:100560003A890DE02968B1F8502002EBC000081864
:1005700000F206400488C4F30904002C05D07A89EF
:1005800023467969286801F016F9F8692018F8619E
:100590007A6922447A61B86938B13869844204D3EF
:1005A0002868394600F03DFE03E03978284600F01F
:1005B0006EFB5FEA09605BD50199286801F12807A5
:1005C000009930F82120164046F4004620F82160BA
:1005D000F878022829D00021B961387B00280FD093
:1005E0005FEA496014D5787858B900F0CCF948F240
:1005F000FF32018811400180038843F400430380E7
:1006000071E60128FCD100F0BEF9002101806AE604
:1006100078782A6800287FF460AE00F097F948F2F5
:10062000FF3102880A400280E6E72A68B8695FEA7B
:10063000C95113461DD43978B2F8502002EBC102DB
:10064000134403F202431A88C2F30902824234BF00
:10065000801A00200028B8613FF446AE7869104443
:100660007861F9695218FA613946286800F0D9FDB5
:100670003DE697F800C0B2F850205FEA496109F4FE
:1006800080444CF2800602EBCC0241D59B1803F269
:1006900002431B88C3F30903834234BFC01A0020FE
:1006A0000028B86104D100F098F9002C4BD040E04C
:1006B0000CB100F072F997F82400012877D100F00E
:1006C00077F97878C8B900F056F93F2B00F202406C
:1006D00008D35A0913F01F0F08BF521E920242F4AA
:1006E000004208E013B900F008F90DE05A08DC07F1
:1006F00048BF521C9202028006E0012804D100F09B
:100700003AF900F20240038079619BB23A894BE0EA
:100710009B1803F206431B88C3F3090398422CBFBE
:10072000C01A00200028B8610ED100F056F9002C44
:100730003DD12968387831F820200AEA020246EAD9
:10074000020A21F820A032E00CB900F026F997F84F
:10075000240001282BD100F02BF92A687878C8B939
:1007600000F0EDF83F2B00F2064008D35A0913F0D1
:100770001F0F08BF521E920242F4004208E013B954
:1007800000F0BBF80DE05A08DC0748BF521C92028B
:10079000028006E0012804D100F0D1F800F2064002
:1007A000038079619BB27A89286800F0F3FF296899
:1007B000387831F8202048F6BF731A4082F03002B2
:1007C00048EA020821F8208091E5410404D500F0B0
:1007D000C6F84BF6FF707FE0810404D500F0BFF847
:1007E0004DF6FF7078E0C10405F5387224D52B680A
:1007F00003F140014FF6FB700C8804400C804FF66B
:10080000F7702968B1F840300340A1F84030117802
:10081000012905D1002010700021284601F019F8A7
:10082000284600F06BFA2968B1F844204EF6FF70B4
:100830000240A1F8442052E0010510D5286830F8A4
:10084000401F41F0080101804FF2FF702968B1F8A4
:1008500044200240A1F8442000F085F823E001067E
:1008600026D5286840304FF67F7183880B408380FF
:100870001078C0B900F077F82868B0F8401041F05F
:100880000801A0F840100120107028462968B1F82E
:1008900054309B0803F03C03536003B0BDE8F04FB5
:1008A000012100F0D6BF2846BDE8FE4F00F018BA7F
:1008B00081050BD500F053F84FF6FF508A880240AF
:1008C0008A802846BDE8FE4F00F0F4B9C00506D581
:1008D000296840314FF6FF608A8802408A80BDE86F
:1008E000F78FBCF80040C4F30904A142704701EB44
:1008F000C203C31803F206437047028848F2FF346C
:1009000022400280B0F800A04AF4004AA0F800A0FB
:1009100070472968387831F820300AEA03031A430F
:1009200021F820207047296831F823C00BEA0C0B0E
:100930008BF4005B48EA0B0B21F823B07047B2F848
:10094000500010183A7800EBC2007047B2F850001F
:100950003978101800EBC10000F206407047286893
:1009600000F1400170472868B0F8401041F00401E0
:10097000A0F8401070472868B0F850203C788018E4
:1009800000EBC40070472868B0F850103A7840185F
:1009900000EBC20000F202407047286830F82C10CB
:1009A0000AEA0101024646EA010A22F82CA0704731
:1009B000FA6978699A18FA61C1183A69386A9042F6
:1009C00003D31346C01A3862704710B103460020A3
:1009D0003862002287F824207047787888B9286820
:1009E000B0F85020801800EBCC0101F2024148F22F
:1009F000FF300B8803400B80088840F400400880DB
:100A00000BE001282AD12868B0F85020801800EBAC
:100A1000CC0101F2024100230B802968787888B963
:100A2000B1F850000818397800EBC10000F2064018
:100A300048F2FF3102880A400280038843F40043F1
:100A400003800BE0012809D1B1F85000081839786B
:100A500000EBC10000F206400022028028463978EF
:100A600000F01FB9206800F084FE002084F8A8027E
:100A700010BD044694F8A8020128704710B5FFF78E
:100A8000F8FF01D1022010BD012084F8A80284F8EB
:100A90002410206800F067FEE7E738B5054601F04E
:100AA00007042820444328190C0647BF00F12804F6
:100AB000012000F5B4740020607001F0070121707E
:100AC0002261E370607808B12178E181022B04BFD4
:100AD0000020207195F8A802012801D1022032BD22
:100AE000012085F8A8022146286800F0D5F90020E9
:100AF00085F8A80232BD10B5044600F087F800F072
:100B000062F801D1022010BD00F07AF800F001FB7C
:100B1000ABE738B501F0070528246543441904F50F
:100B2000B47401F007016261A3610022E2616270A6
:100B3000217021461CE001F007012822514308449E
:100B4000D0F88401704738B51C4601F0070528230A
:100B50005D43431928335A619C611C6201220024C1
:100B600001F0070183F82420DC615A7019701946DE
:100B7000006800F056FB002032BD10B5044601F0BD
:100B800007006268824201D2012010BD28220B06B4
:100B900004D5504320442830012205E012FB01F225
:100BA000A01800F5B47000224270012300F00AF88A
:100BB00001D1022010BD84F8A8320146206800F05F
:100BC0007CFD52E7837001F00701017094F8A812D0
:100BD0000129704710B5044601F00F036068984280
:100BE00001D2012010BD00F011F80023FFF7EAFF49
:100BF00001D1022010BD00F003F800F077FD34E7CA
:100C0000012284F8A82201462068704701F00702FB
:100C100028204243A0180A0603D528300123437038
:100C2000704700F5B47000224270704710B592B062
:100C30000446442101A800F00DFE22687E498A4244
:100C40001DD14FF400534FF0006101930E9101A8A4
:100C500000F004FE08B101F003FA7848016841F49D
:100C6000000101600022006800F4000000900521EE
:100C70000098142001F014FA142001F02FFA12B099
:100C800010BD00F52C71D0F8F00201F08BBA0B46C4
:100C900028225343C218D0F8F002D2F87C2101F088
:100CA000AFBA0B4628225343C218D0F8F002D26BD9
:100CB00001F0D8BAD0F8F00201F063BB10B50446D9
:100CC000A068022818BF01F0CBF9D4F8F002012186
:100CD00001F043FBD4F8F002BDE8104001F00DBB79
:100CE00010B50446D4F8F00201F03AFBA06920B137
:100CF0005348016841F00601016010BD10B504467B
:100D0000A06930B14E48016821F00601016001F090
:100D10002AF9D4F8F002BDE8104001F029BB10B563
:100D2000044648484449C0F8F0420822C4F8C402C6
:100D3000426002230022016083600361426182619C
:100D4000C2610262FFF748FA08B101F089F9D4F8EC
:100D5000C40218230022002100F04CFDD4F8C40284
:100D600058230022802100F045FDD4F8C402C0239E
:100D70000022812100F03EFDD4F8C4024FF48873B4
:100D80000022012100F036FDD4F8C4024FF4807334
:100D90000022822100F02EFD002010BD80B5D0F889
:100DA000C402FFF76EFABDE8024050E010B51C46E1
:100DB0001346D0F8C4022246FFF76FFEBDE810408C
:100DC00045E080B5D0F8C402FFF795FEEBE780B5AB
:100DD000D0F8C402FFF7D1FEE5E780B5D0F8C40231
:100DE000FFF7F8FEDFE7D0F8C42201F07F032820E8
:100DF0004343D018090602D590F82A00704790F8AE
:100E00006A01704780B5D0F8C402FFF737FECAE721
:100E100080B5D0F8C402FFF796FEC4E780B5D0F8DD
:100E2000C402FFF776FEBEE7D0F8C402FFF783BE28
:100E30000548704700000000005C00405810024068
:100E400010ED00E0942D0020B435002070470146DD
:100E5000002021B1022901D10120704703207047F1
:100E60004030002181804BF6807202800020704764
:100E7000B0F8402044F27F0100F087BC0EB401219D
:100E800020F8401F0022028000238380002101827D
:100E9000002003B0704700002DE9F04F0B460246DA
:100EA0001D7832F82560DC7848F68F1100200E405E
:100EB000032C0CD8DFE804F002080C0546F4007699
:100EC00006E046F4C06603E046F4806600E00120D8
:100ED00048F28004264322F8256048F68F75197879
:100EE0000E4632F826702F403943214322F826104F
:100EF0004BF68F76197B93F8009000294CF280070F
:100F000048F6BF7C48F2C00E75D1D9884FF6FE7AFC
:100F10000AEA010B59780029B2F8501011441ED08A
:100F200001EBC90101F58069A9F800B0197832F820
:100F30002160760606D532F8216035404EEA050577
:100F400022F821501978DB78012B32F821300CEA95
:100F500003030EBF1C4383F020031C43D5E001EBC9
:100F6000C90909F20449A9F800B0B2F8501002EB1F
:100F7000010C19780CEBC10C19693F290CF2064CD5
:100F80000BD34FEA511E11F01F0F08BFAEF1010E37
:100F90004FEA8E2141F4004117E071B9BCF800E03E
:100FA00048F2FF3101EA0E0EACF800E0BCF8008018
:100FB00048F40048ACF8008009E04FEA510EC90738
:100FC00048BF0EF1010E4FEA8E21ACF800101978DF
:100FD00032F821C05FEA4C4C06D532F821C005EA50
:100FE0000C053D4322F82150197832F821301E407B
:100FF00086F4405688E0D978022909D132F82910C0
:10100000294041F4014141F0800122F8291009E012
:1010100032F829A048F68F6101EA0A0144EA010A80
:1010200022F829A0B2F85010B3F808A002EB010989
:10103000197809EBC10101F580694FF6FE7101EAEB
:101040000A0AA9F800A0B2F8501093F800805118CD
:1010500001EBC809598909F204494FF6FE7808EAFC
:101060000101A9F80010597893F80080002932F89E
:10107000281023D1490405D532F8281029400F4300
:1010800022F82870197832F821707F0606D532F8D8
:1010900021703D404EEA050522F82150197832F8BA
:1010A00021502E4086F44056264322F821601978BC
:1010B00032F821300CEA03031C4326E0490405D52D
:1010C00032F8281029400F4322F82870197832F896
:1010D00021707F0606D532F821703D404EEA0505A5
:1010E00022F82150DD781978012D32F821500CEAD0
:1010F000050518BF85F0200544EA050C22F821C03B
:10110000197832F821301E40344322F82140BDE8DE
:10111000F08F2DE9F041024691F800C048780B7B32
:101120004BF68F7E4CF2800448F2800848F6BF757B
:1011300048F2C00648F68F77ABB9002832F82C0089
:1011400008D0400636D532F82C0007403E4322F83E
:101150002C602FE0400458D532F82C0007403C4367
:1011600022F82C4051E0002832F82C002BD140040A
:1011700005D532F82C003840044322F82C4008787A
:1011800032F820305B0605D532F820303B4033433F
:1011900022F82030087832F820301F403E4322F8F1
:1011A0002060087832F820300EEA030348EA030E84
:1011B00022F820E0087832F820100D4048EA0508AF
:1011C00022F820802AE0400405D532F82C0038406F
:1011D000204322F82C00087832F820305B0605D531
:1011E00032F820303B401E4322F82060087832F865
:1011F00020301F403C4322F82040087832F820304D
:101200001D4048EA050522F82050087832F82010E1
:101210000EEA010148EA010E22F820E00020BDE8B4
:10122000F0812DE9F0420E4605467278012A48F217
:10123000800748F68F7140F00181B4693269A2429B
:1012400038BF1446307B40B9F28800F02BFA00F02A
:101250002DFA00F202400480E7E096F803E03078CF
:10126000D6F820C0BEF1020F034640F0C3806245AD
:1012700080F0AD8035F82300014041F4014141F098
:10128000800125F82310ACEB04003062630832784B
:101290007178964635F82E905FEA496E04F00100A9
:1012A0004FEA541C49D5B9B900F0CAF901F2064118
:1012B00009D314F01F0F08BFACF1010C4FEA8C20CA
:1012C00040F4004006E014B900F0CBF90BE000B1A7
:1012D0005B1C9802088006E0012904D100F0CBF9DC
:1012E00000F206400480728900F0DCF900F09AF9FF
:1012F00032BF001B0446002030627078C0B900F095
:10130000C0F901F2024108D3600914F01F0F08BFB1
:10131000401E800240F4004008E014B900F0A1F93A
:101320007DE06008E20748BF401C8002088076E04C
:10133000012874D100F0BAF96EE0B9B900F080F973
:1013400001F2024109D314F01F0F08BFACF1010CE8
:101350004FEA8C2040F4004006E014B900F081F917
:101360000BE000B15B1C9802088006E0012904D163
:1013700000F081F900F202400480328900F092F915
:1013800000F050F932BF001B044600203062707834
:10139000C0B900F076F901F2064108D3600914F0F3
:1013A0001F0F08BF401E800240F4004008E014B93F
:1013B00000F057F92DE06008E20748BF401C8002AA
:1013C000088026E0012824D100F070F91EE035F8ED
:1013D000231048F68F600140394325F823106446F6
:1013E000B5F850002918307801EBC00101F2024134
:1013F0000C8014E0ACEB0401316235F823104A068E
:10140000B5F85010294401EBC00005D500F20640A4
:101410000480A3B2728904E000F202400480A3B207
:1014200032897169284600F0B5F9317835F8212004
:1014300048F6BF70024082F0300221E0307B002885
:101440002ED1B1693069884232BF091A084600219D
:10145000B16100F0EEF83F2801F2064116D34209CF
:1014600010F01F0F08BF521E900240F40040088089
:10147000317835F821204BF68F70024082F44052CB
:10148000174325F821700020BDE8F08210B900F064
:10149000E8F8EDE74208C00748BF521C9002E6E7B3
:1014A000F078022857D1BAB900F0F3F802F20242FC
:1014B00008D3430910F01F0F08BF5B1E980240F4C9
:1014C000004008E010B900F0C2F805E04308C0078A
:1014D00048BF5B1C980210807078C0B900F0D9F842
:1014E00002F2064208D3430910F01F0F08BF5B1E2B
:1014F000980240F4004008E010B900F0A8F812E0AB
:101500004308C00748BF5B1C980210800BE001280D
:1015100009D1B5F850003278281800EBC20000F26B
:10152000064032690280F0690028A1D0307835F891
:10153000202044F2400303EA02049C4218BF1A42EE
:1015400096D135F82020114041F4004141F0C0010E
:1015500025F820108CE7012862D1B16930698842F2
:1015600032BF091A08460021B161440800F00101A8
:1015700043094ABBB5F8502005EB020C32780CEB5E
:10158000C20C3F280CF2024C08D31A4610F01F0F71
:1015900008BF521E920242F4004213E070B9BCF838
:1015A00000E048F2FF3202EA0E0EACF800E0BCF8B0
:1015B000009049F40049ACF8009005E0224601B1E2
:1015C000521C9202ACF80020727812BBB5F8502081
:1015D00096F800C0AA1802EBCC023F2802F206429D
:1015E00008D310F01F0F08BF5B1E980240F40040A4
:1015F00010803DE748B9118848F2FF300140118062
:10160000138843F40043138032E701B1641CA00245
:10161000EEE7012AF8D100F00CF801F2064126E7C6
:10162000012031E77069316920447061306A81427C
:101630007047B5F850103278691801EBC201704755
:10164000B5F85010691801EBC2013F2C70471388A0
:1016500048F2FF3003401380148844F4004414809F
:1016600070470A8848F2FF3002400A800B8843F432
:1016700000430B807047B5F85000281800EBC200FB
:101680007047B5F850002918307801EBC0013F2CA5
:101690007047B5F850002A18307802EBC002306964
:1016A0003F2870477169A3B2284673E0B5F850002F
:1016B0003178281800EBC100704710B50A784978D6
:1016C00030F82240002948F2800305D048F6BF7167
:1016D0000C4084F0100404E04BF68F710C4084F44D
:1016E0008054234320F82230002010BD30B50A7BFF
:1016F000002A36D14A780C78002A30F8242048F2A3
:10170000800348F68F7516D0520608D530F824208D
:10171000154045F4004545F0C00520F82450CA782E
:10172000012A1ED00A7830F8224048F6BF710C40DA
:1017300084F0200412E0520408D530F8242015402B
:1017400045F4404545F0800520F824500A7830F8EB
:1017500022404BF68F710C4084F44054234320F810
:101760002230002030BD11B98021A0F84C1000209B
:101770007047B0F8581041F40041FFE7A0F8581046
:1017800000207047B0F8440070470A40A0F840209D
:101790000020704710B580185B1C00F580605B0866
:1017A00007E00A784C7842EA0422891C20F8022BD0
:1017B0005B1EF6D110BD10B5821802F58062580884
:1017C00006E032F8024B0C70240A4C70891C401E53
:1017D000F7D1D80744BF1088087010BD4AB1000087
:1017E00011F8013B521E00F8013B1CBF11F8013BF0
:1017F000F8E7704730B528240D0605D501F007013C
:1018000061430844283003E06143084400F5B470A4
:101810001AB900210173C38004E0038101211B0C6C
:1018200001734381002030BD016800F5387001224A
:10183000002382600370B1F8540040F00100A1F869
:101840005400B1F8540040F00200A1F85400002008
:1018500070477047002200F0A7BD00002DE9F84353
:1018600005464FF000082868DFF80C62010353D5E5
:10187000F06C0024C10009D4F06C40F08050F0649A
:101880000124F06C00F0805000900098DFF8EC71BB
:10189000386840F48070386000F0A0FD81463868F8
:1018A000C10508D400F09AFDA0EB09000328F6D387
:1018B0004FF003082BE0DFF8C871386810F440706F
:1018C0001CBF296C88420BD03868396841F48031DC
:1018D000396020F440703A6822F480323A6038600F
:1018E000C0070ED500F07AFD81463868810708D41C
:1018F00000F074FDA0EB090041F289318842F4D375
:10190000D6E73A68286C22F4407202433A601CB170
:10191000F06C20F08050F0642878C10705D5F26F94
:101920006868920840EA8202F2672978880705D53C
:10193000F16FA86821F00C010143F167297848078D
:1019400005D5F16FE86821F030010143F16729788E
:10195000080705D5F16F286921F0C0010143F1673F
:101960002978880605D5F16F686921F44061014343
:10197000F1672978480605D5F16FA86921F440512F
:101980000143F1672978080605D5F16FE86921F46C
:1019900040410143F1672968C80505D5F16F286A00
:1019A00021F440310143F1672968880505D5F16FBD
:1019B000686A21F440210143F167296848050AD586
:1019C000F16FA86A21F440110143F167A96AB1F5EA
:1019D000801F00F04AF8296808050AD5F16FE86A07
:1019E00021F440010143F167E96AB1F5800F00F08D
:1019F0003CF82968C8040AD5F16F286B21F04071C2
:101A00000143F167296BB1F1807F00F02EF829685E
:101A1000880408D5F16F686B21F040610143F167DC
:101A2000696B00F020F82968480408D5F16FA86BAD
:101A300021F040610143F167A96B00F014F82968B7
:101A400008040DD5F16FE86B21F040510143F167B7
:101A5000E96BB1F1805F03D1306840F480303060D1
:101A60004046BDE8F283B1F1006F03D1306840F425
:101A700080103060704700000C1002400070004081
:101A800090100240010008D4012200F01F01DFF88D
:101A90007C358A40400943F8202070470901020044
:101AA00003D4DFF86C0581547047DFF8683502F025
:101AB0000F021A4402F8041C704730B500F007000A
:101AC0000123C0F10704052C2EBF0F2403FA04F4F0
:101AD000641E051D072D34BF0020C01E214081401B
:101AE00003FA00F0401E1040084330BD10B50FF25D
:101AF0007453595C4118DFF820050C6804402243F8
:101B00000A6010BD10B500F017F824F0200404E0BE
:101B100010B500F011F824F040042243026010BD1B
:101B200010B500F009F824F08004F6E710B500F0D5
:101B300003F824F44074F0E70FF22853595C40187E
:101B40000468704710B5FFF7F7FF24F44064E4E73A
:101B500010B5FFF7F1FF24F44054DEE7800ADFF808
:101B6000BC3483EAC003DFF8B80400EB810050F80E
:101B70002310090A42EA012240F82320704700009E
:101B80002DE9F04194B000F02FFC00F0ECF900F0EA
:101B900020FADFF89074DFF890447868DFF88C540E
:101BA00040F0040078600322786800F0040005909B
:101BB00005F124060598796841F02001796078687C
:101BC00000F0200005900598796841F040017960A7
:101BD000786800F0400005900598796841F00101AF
:101BE0007960786800F0010005900598796841F007
:101BF000020179604FF46041786800F002000590BE
:101C00000598DFF82C0400910192002102916946A9
:101C100000F0FAFB03200090019000220292694636
:101C2000DFF8100400F0F0FB4FF4806000F094F94E
:101C3000DFF8040400F0E8FB4EF2B31000F08CF97A
:101C40004FF0904000F0E0FB4FF6AE7000F084F9EA
:101C5000204600F0D9FB08A800210022002380E8DC
:101C60000E00202100F0B6F94FF4403169604FF0CA
:101C7000A0400421A961286001216977296200221E
:101C80004FF48051AA60EA602A616A612A77327053
:101C9000B260F2603275B1613277284600F0C4FC60
:101CA00008B100F0DDF90020089008A9284601F0ED
:101CB000C5F808B100F0D4F90622019202927F2201
:101CC000DE490091039204210491002205926946A5
:101CD000284600F00DFE08B100F0C2F93868DFF8C0
:101CE000608340F004003860396801F0040100911D
:101CF0000098396841F00101396005213A6802F025
:101D00000102009200220098D8F80000C0F30220DF
:101D1000FFF7D3FE01460B20FFF7C0FE0B20FFF7B5
:101D2000B1FE00F00EF901460C20FFF7B7FE0C20C3
:101D3000FFF7A8FE182101A8FFF78CFD786940F491
:101D4000807078610322786900F4807000900098B8
:101D5000796841F0020179601021786800F0020092
:101D6000009000980191029200210591204601A95E
:101D700001F0C8F840200321019002910022059251
:101D800001A9204601F0BEF8AE4C72220021204687
:101D9000FFF7E4FE00F0DCF8FFF7A8FE00F0D8F84B
:101DA000FFF7D6FE00F0D4F8FFF7ACFE00F0D0F855
:101DB000FFF7AEFE802200212046FFF7B1FE00F0C3
:101DC000C7F8FFF7B3FE00F0C3F8FFF7BBFE7322BE
:101DD00001212046FFF7C2FE102201212046FFF715
:101DE00085FE00F0AAF8FFF7B3FE00F0A6F8FFF7B3
:101DF00089FE00F0A2F8FFF78BFE80220121204629
:101E0000FFF78EFE00F099F8FFF790FE00F095F8CE
:101E1000FFF798FE00F095F801463F20FFF73EFEE1
:101E200089494FF00040086001F0E8F8874C884885
:101E300020604FF4E1310C20002260616160A260FB
:101E4000E2602261A261E26122626262A2622046D5
:101E500001F0FEF808B100F003F90021204601F07E
:101E600007FC08B100F0FCF80021204601F00BFC53
:101E700008B100F0F5F8204601F0DCFB08B100F0F5
:101E8000EFF81C2100F0A6F8342107A8FFF7E2FCC8
:101E9000704C714820600F214FF47A700022E0608E
:101EA0006160A26022616261A261204601F03EFC95
:101EB00008B100F0D5F8204601F05BFC08B100F055
:101EC000CFF860204FF41671009001910022029229
:101ED00003920492059206926946204601F0E9FCBD
:101EE00008B100F0BDF800210791089109910A910D
:101EF0000B914FF400520D9113910C9207A92046BB
:101F000001F024FF08B100F0ABF8204601F0D6FF45
:101F10007F21284600F044FF284600F073FC02F0C1
:101F200035F802F0F7F84D4A0FF2B100002102F047
:101F300056F8B06402F038F8FEE70022012120468E
:101F40007047D8F8000000220521C0F30220B4E554
:101F500000220021204670470321009001910022B9
:101F600002926946704700B593B0382105A8FFF783
:101F700071FC00F02EF84FF4007002F0D7F8022147
:101F80004FF48072059108924021022209910C922F
:101F90000D920C2101220E920F9102220421109227
:101FA0001191129205A802F00FF908B100F058F84B
:101FB000012101910F200090002200210292039143
:101FC0000492684602F0E1FA08B100F049F813B053
:101FD00000BD14216846FFF73DBC000038B51D4C1C
:101FE0000021204601F0D2FB184D4FF47A730122F4
:101FF00004F14C01284601F06BF8012104F14C007A
:1020000002F039FC012002F036F8EEE700E100E0D2
:1020100000E400E018ED00E0EFBFFFFF00048000E7
:102020000008024048100240000400482C3C0020F8
:102030000008004800140048001800480080F03EE6
:102040000CED00E00000024004E100E09C3B0020B9
:10205000004400409C3C002000440140A471000862
:1020600072B6FEE7081C3044586C000009010200FB
:1020700002D42A4881547047294B02F00F021A44B7
:1020800002F8041C7047274B19684FF6FF02000244
:10209000114000F4E060084323490843186070478A
:1020A00070B5204B1C68C4F302230124C3F107055B
:1020B000052D2EBF0F2504FA05F56D1E1E1D072EDA
:1020C00034BF0023DB1E2940994004FA03F3BDE826
:1020D00070405B1E1A401143C8E70000010007D49E
:1020E000012200F01F01114B8A40400943F82020D3
:1020F000704710B5401EB0F1807F01D3012010BDA4
:102100000B4C60600F214FF0FF30FFF7AFFF002155
:10211000A16007202060002010BD000000E400E066
:1021200018ED00E00CED00E00000FA0500E100E031
:1021300010E000E010B508B9032010BD00F52773CA
:102140000024DC615C621C6301B19961012119709A
:102150000270BDE81040FEF7E2BD1CB50022ADF8EC
:10216000002009B9032016BD00F52E742160C96A4C
:1021700011B1684688476061002016BDFEF70EBEAB
:1021800080B5D0F8B832032213B11A6890470246DE
:10219000104602BD80B5D0F8B8220AB15268904707
:1021A000002002BD38B5044604F2AA25284602F0F4
:1021B0008DFD04F5257001210160828B817D4260D7
:1021C00011F01F0003D002280DD006D311E02946DC
:1021D0002046BDE8344002F06FBB29462046BDE8EA
:1021E000344002F0B8BC29462046BDE8344002F035
:1021F000D8BC2046BDE8344001F08001FEF7E7BDC1
:1022000038B5044610460A0004F525731FD1196835
:1022100003290ED104F5AE714A680D68AA420AD2AC
:10222000AD1A0D60954238BF2A460146204602F09D
:10223000AAFD002032BD187A032804D1586A01692A
:1022400009B120468847204602F0A5FDF1E7187A3B
:102250000328EED1586A8269002AEAD02046BDE8F8
:102260003840104738B5044610460A0004F5257575
:1022700038D1296802292ED1E269216A914206D219
:10228000521AE2610146204602F06BFD0DE013D1C7
:10229000A069884210D3696888420DD200220021CB
:1022A000204602F05EFD002068600023002200212D
:1022B0002046FEF7B3FD0EE0287A032804D1686AB1
:1022C000C16809B12046884780212046FEF77FFD7E
:1022D000204602F067FD287B012804BF00212973F6
:1022E000002032BD287A0328FAD1686A4269002AA0
:1022F000F6D02046BDE83840104710B5044604F536
:1023000025700121017200220260002363600261D6
:10231000416A09B9032010BD806A00281CBF4A68C1
:10232000002A02D0002120469047402300220021AD
:102330002046FEF73BFD04F5B0700121402281806C
:1023400002604023002280212046FEF72FFD01205D
:10235000A08440212162002010BD0174002070473C
:1023600000F5277004220178417002700020704748
:1023700000F527700178042904BF4178017000201E
:10238000704780B500F52772D16909B9032002BDF5
:102390001278032A02D1C96901B18847002002BD21
:1023A00062F30F2262F31F4200B500BF130096468E
:1023B0009446103928BFA0E80C50FAD85FEA417C57
:1023C00028BF0CC048BF40F8042BC90728BF20F81D
:1023D000022B48BF00F8012B00BD00000148006837
:1023E000704700BF0C000020032010B5FFF74BFE24
:1023F0000F2002F0DFFC0024002814BF012401F0AC
:10240000FDFC204610BD00002DE9F84F00276D4A65
:102410006D4B4FF00F0805460E4638E06B4CA54259
:1024200014BF062405248C40694944EA0E0441F88F
:102430002C40C143D2F808C0746801EA0C0CE402D5
:1024400048BF40EA0C0CC2F808C0D2F80CC074684F
:1024500001EA0C0CA40248BF40EA0C0CC2F80CC004
:10246000D2F804C0746801EA0C0CA40348BF40EA27
:102470000C0CC2F804C0D2F800C001EA0C0C716860
:10248000C90348BF40EA0C0CC2F800C07F1C316889
:1024900031FA07F000F094800124BC4014EA0100F6
:1024A000F4D04FEA470C032101FA0CF16FEA010E58
:1024B000716801F00309B9F1010F1CBF01F00301BC
:1024C000022912D1A968D6F80C900EEA010109FA86
:1024D0000CF949EA0101A960696821EA04047168FC
:1024E000C1F30011B9400C436C60B900347904F0B9
:1024F0000304032C21D0EC68D6F808900EEA0404FB
:1025000009FA0CF949EA0404EC60347904F0030494
:10251000022C12D1FC0805EB840401F01C09D4F84C
:1025200020A008FA09FB2AEA0B0AD6F810B00BFA29
:1025300009F949EA0A09C4F820902C680EEA040E49
:10254000347904F0030404FA0CF444EA0E0CC5F8E0
:1025500000C0746814F4403F98D0D3F800C01C4CFD
:102560004CF0010CC3F800C04FEA970CD3F800E020
:102570000EF0010ECDF800E001F00C01DDF800E0F6
:1025800054F82C4008FA01FE24EA0E0EB5F1904FE3
:1025900008BF002413D00F4CA54208BF01240ED061
:1025A0000D4CA54208BF022409D00C4CA54208BF1F
:1025B000032404D00A4CA5427FF430AF042432E750
:1025C000BDE8F18F00040140601002400014004893
:1025D000080001400004004800080048000C0048C2
:1025E00000100048603000EB8100006800F0F84007
:1025F0007047603000EB8100016821F000410A4320
:1026000002607047CB0D10B5143003F004031818A6
:10261000090D01F01F01036807248C40A34302FA4F
:1026200001F11943016010BDF8B5044600200025F2
:1026300000900CB90120F2BD04F15806706828B969
:10264000204601F0F6FB0020B060307021688868F9
:10265000800004D58A68DFF8740202408A6021682D
:102660008868C00017D48A68DFF86402024042F02C
:1026700080528A60DFF85C12DFF85C220868B0FBE9
:10268000F2F2521C5200009202E00098401E0090AC
:1026900000980028F9D120688168C90008D47268C0
:1026A00042F0100272600125B16841F00101B16091
:1026B00081687268D30600D4490700F19C80726873
:1026C00022F4807242F0020272608068C00710D467
:1026D000DFF80812DFF80822086811680843C0070D
:1026E00007D4DFF800120A68606822F47C12024303
:1026F0000A6004F12402607F9369E168177843EA75
:102700004033A0680B430343012F43EA074303D13F
:102710005068401E43EA4043906820B100F478704E
:102720000343D06803432168DFF8BC01CF6807404A
:102730003B43CB6021680B69106923F0406303437E
:102740000B6121688B6888685B0740D400073ED422
:10275000CB68DFF89801277F0340107D43EA873379
:1027600043EA4003CB6020690028206801690CD04F
:1027700041F4803101612168D1F8C03020699B0BA0
:1027800040EA8333C1F8C03009E021F480310161AF
:102790002068D0F8C010890B8903C0F8C010107FE2
:1027A00001280FD123681F69106A516A6FF38A07E5
:1027B0000743906A0F43D16A07430F4347F001076D
:1027C0001F6104E0206801694908490001616069EE
:1027D00001282068016B05D1226A0909521E42EACC
:1027E000011101E00909090101630120716860F329
:1027F0000101716004E0706840F010007060012514
:102800002846F2BDF8B50646DFF8D80004683168FE
:102810008868400704F01F044BD406F15805297856
:10282000012946D001202870304600F033FA01001B
:102830003CD16A6800F03FF86A60DFF82014326823
:102840008A4200D11CB96A6822F480126A606A6800
:10285000D30446BFAA6822F006020022AA601C2305
:102860003268136000272F70012332688A4204D136
:10287000002C1CBF052C092C0AD1D1688C0103D572
:10288000696863F30D3169609368DFF8441018E0FC
:102890006A68DFF8CC1342F480126A6009688A0122
:1028A00008D5696863F30D316960F2BD00212970B4
:1028B000F2BD0220F2BDDFF8B8140A4042F4807283
:1028C00070470B4043F004039360F2BDC0FFFF5F0D
:1028D000C0FFFF7F18000020400D030008000050DB
:1028E00008010050080300500740F0FFFDBFFFFF44
:1028F000F8B50646002006F158050F460090002462
:102900002978012901D10220F2BD01202870306808
:102910008168490700F197817A68396893093030F6
:1029200003F00C03181802F01F02D0F800C01F2398
:102930009340C1F384612CEA030301FA02F21A43C3
:10294000026030688268816852074DD409074BD411
:10295000BA68B2F1004F08D139680022FFF752FE81
:102960003068416941F0004106E03968FFF74AFEEE
:102970003068416921F0004141613068C1683A69BD
:10298000042A32D060303B6800EB820CDFF8E803A9
:10299000DCF80020024003F0F8431343C9087A69C9
:1029A000480000F006008240134343F00043CCF897
:1029B000003031683A69B869603101EB82010B6817
:1029C00023F0807318430860387F01280CBF4FF054
:1029D0000070002031683A69603101EB82010B68B8
:1029E00023F000731843086076E00021FFF7FAFD3A
:1029F00040033068214604D1FFF7F4FDC0F3846042
:102A000003E0FFF7EFFD00F034F939684A030EBF29
:102A1000C1F3846191FAA1F1B1FA81F1884204D144
:102A2000306800220021FFF7E4FD00F02FF9400399
:102A300004D100F02BF9C0F3846003E000F026F924
:102A400000F017F939684A030EBFC1F3846191FAA7
:102A5000A1F1B1FA81F1884204D13068002201214C
:102A6000FFF7C7FD00F00EF9400304D100F00AF9AA
:102A7000C0F3846003E000F005F900F0FAF839686B
:102A80004A030EBFC1F3846191FAA1F1B1FA81F159
:102A9000884204D1306800220221FFF7AAFD00F02D
:102AA000EDF8400304D100F0E9F8C0F3846003E0DE
:102AB00000F0E4F800F0DDF839684A030EBFC1F316
:102AC000846191FAA1F1B1FA81F1884204D13068B0
:102AD00000220321FFF78DFD30688168C9075ED4AD
:102AE000FB68DFF8982239689342D0F8B030C1F320
:102AF00012010CBF194323EA0101C0F8B010F868B5
:102B000090424CD1386841030EBFC0F3846290FA02
:102B1000A0F1B1FA81F2521C012102F01F020A2A2F
:102B20001BD2420306D1C0F38462C0F38463C0F3B6
:102B3000846001E000F096F8521C5B1C920603F0E2
:102B40001F03401C02F0F842994000F01F0011439F
:102B500000EB400041EA00511DE0420306D1C0F302
:102B60008463C0F38462C0F3846001E000F07AF80B
:102B70005B1C521C401C9B0602F01F0200F01F0051
:102B800003F0F84391400A38194300EB400041EA52
:102B9000005141F00071BA683068FFF733FD3A68C0
:102BA000DFF8DC01024253D0DFF8C801DFF8D4318E
:102BB000016801F0E0719A421CBFDFF8CC71BA42A3
:102BC0001FD10B021DD43268B2F1A04F40D103686F
:102BD000DFF8B82123F0E073194341F400010160EC
:102BE000DFF8AC010168B1FBF2F2521C0C20424349
:102BF0000092009800281EBF0098401E0090F8D157
:102C000026E0DFF89071154BBA420BD1CA011FD4F0
:102C100036689E421CD0026822F0E072114341F0F7
:102C200080710EE0DFF87071BA4211D14A020FD400
:102C300036689E420CD0026822F0E072114341F4E3
:102C40008001016004E0686840F0200068600124B1
:102C5000002028702046F2BD000000000001005056
:102C60000C00005090FAA0F0B0FA80F21346104623
:102C7000704790FAA0F0B0FA80F0704730680321F6
:102C8000FFF7B0BC30680221FFF7ACBC306801210F
:102C9000FFF7A8BC70B5044621688868C20723D432
:102CA00088686FF39E10F0B988683C4D284040F06A
:102CB00001008860FFF792FB064620680168CA079A
:102CC00012D48068C00705D420688168294041F08B
:102CD00001018160FFF782FB801B0328EDD3206890
:102CE0000168CA07E9D401E0002070BDE06D40F042
:102CF0001000E06500F001F870BD206E40F00100AA
:102D000020660120704738B50446216888688A68C3
:102D1000D2072BD5800729D48A6802F00D02012A38
:102D20001DD18A681D48024042F002028A600321D8
:102D300020680160FFF752FB054621688868C107DB
:102D400014D5FFF74BFB401B0328F6D3206881689E
:102D5000C807F2D5E16D41F01001E16503E0E06DD7
:102D600040F01000E065FFF7C8FF32BD002032BD23
:102D7000FEF1FFFF0803005000F0FF0300007F405A
:102D800000000880000021C31000C090400D030027
:102D900018000020000052C7000084CBC0FFFF7F56
:102DA0007CB50446002004F158060D4600903178A9
:102DB000012901D1022076BD0120307000F036F8E3
:102DC000010070682BD120F4885040F00200706040
:102DD00005F080452268DFF85C00936803401D43DE
:102DE00045F000459560DFF8502020688068C00FEE
:102DF0000FD00098401C009000989042F5D3706866
:102E000020F0020040F010007060002030700120BF
:102E100076BD7268012060F30102726002E040F04A
:102E20001000706000203070084676BD2046FFF725
:102E30006ABF0000C0FFFF3F02DE0400F0B500F1F2
:102E400058049BB023780022012B08BF02204AD0EF
:102E50000125257000261796002518950368B3F103
:102E6000A04F27D1234FDFF890C03B68DCF800501B
:102E70006D0732D45B0730D40B68204D204EF3B180
:102E8000D6F800E04B6890F838002EF4604E43EA24
:102E90000E0343EA403EC6F800E0DCF800003B6861
:102EA0001843C3071CD43768086889683D40054348
:102EB0000D4310E000F019F82270012013E0306893
:102EC00020F460403060DCF8000039680843C00737
:102ED00006D431680D40356002E000F006F80122AA
:102EE0000020207010461BB0F0BD606840F020004C
:102EF000606070470801005008000050E0F0FFFFDC
:102F0000080300502DE9F0410B460246186890FA7C
:102F1000A0F0B0FA80F50F2469E0000A90FAA0F062
:102F2000B0FA80F0576A800004FA00FE27EA0E0724
:102F30000CFA00F040EA070CC2F824C04FE001216F
:102F4000A940084052D090FAA0F1B1FA81F7790077
:102F500003268E40D3F804C0F643BCF1010F18BF1E
:102F6000BCF1020F19D1D3F808C0D2F808E006EA84
:102F70000E0E0CFA01FC4CEA0E0CC2F808C0D3F895
:102F800000C0D2F804E0D3F80C802EEA0C0E08FB47
:102F90000CFC4CEA0E0CC2F804C0D3F810C0D2F8F6
:102FA0000CE006EA0E0E0CFA01FC4CEA0E0CC2F81C
:102FB0000CC0D3F804C0BCF1020F10D1D3F814C078
:102FC000B0F5807FA9D2106ABF0004FA07FE20EA9C
:102FD0000E000CFA07F747EA000CC2F820C0586848
:102FE00017683E4000FA01F1314311606D1C18680A
:102FF00030FA05F1A3D10020BDE8F08110B5104CE6
:10300000104900222046FFF795F808B1FFF728F88D
:103010000D492046FFF7A1F808B1FFF721F80B4949
:10302000204602F02BF808B1FFF71AF82046FFF708
:10303000A5F818B1BDE81040FFF712B810BD00BFE9
:103040008830002040010020280000202C010020B2
:1030500038B5040009D004F18005696809B900F0A9
:103060001EF800F021F8012801D1012032BDA06A2C
:1030700008B100F02AF800F00AF821F02A01FFE771
:10308000816000F01BF8BDE8324000F028BA2068EB
:10309000416821F4904141602068816870470020B8
:1030A0002870204600F029BF24216960206802684A
:1030B000520852000260204600F07AB82068016889
:1030C00041F00101016020467047204600F0A4B99C
:1030D0002DE9F84F074607F180051446A868202817
:1030E000984661D15FEA010A14BF002C01205CD030
:1030F0002878012858D0012129700020E860222278
:1031000007F15C06AA603061FFF768F934808146F8
:103110007480FF21B868B0F5805F04D1386990B938
:1031200040F2FF110FE018B9386960B17F2007E065
:10313000B0F1805F06D1386908B97F2103E03F20F4
:10314000B08001E00021B180B868B488B0F5805F3C
:1031500004BF386900280EBFD34650464FF0000B1D
:103160000021297082460DE03868406ABAF1000FEC
:1031700019BF20400AF8010B20402BF8020B718880
:10318000481E7080708858B1CDF800804B460022F0
:103190002021384600F0D2F90028E5D0032004E0D1
:1031A0002020A860002000E00220BDE8F28F00008F
:1031B000F8B50446DFF8540422681368A168034098
:1031C00020690B4361690343E0690B4303431360C8
:1031D00000255168E06821F4405101435160A36922
:1031E000DFF82C148A421CBF206A03439668DFF87C
:1031F0002404DFF824E4DFF82474064033439360AA
:103200000FF2F036D36A606A1B0940EA0313D362F7
:103210007245DFF80C044FF400433ED13F6807F0DD
:103220000307032F47D8DFE807F00289789D4FF0A6
:10323000010CE169B1F5004F4FF6F07740F0B48032
:10324000BCF1000F0FD0BCF1010F00F0A580BCF164
:10325000020F0CD0BCF1040F00F0A180BCF1080FEC
:1032600000F0A080CDE001F094FA002814D0626A4A
:10327000616836F81230B0FBF3F04A0802EB400206
:10328000B2FBF1F0A0F11001B942EBD20740C0F35C
:10329000420007432068C760B4E0DFF888C3624596
:1032A0002CD13F6817F00C075AD0042F46D0082FB6
:1032B00033D00C2F56D04FF0100C8A42B9D1BCF14C
:1032C000000F09D0BCF1020F0AD0BCF1040F4CD0A2
:1032D000BCF1080F4CD094E001F05BFA0028DBD081
:1032E000616A36F81120B0FBF2F6626802EB420127
:1032F0008E4202D31303B3423CD282E0DFF828C3EC
:1033000062450DD13F6817F0300729D0102F15D036
:10331000202F02D0302F25D0CDE74FF0020CCCE784
:10332000DFF808C362450CD13F6817F0C00717D01B
:10333000402F03D0802FF0D0C02FECE74FF0040CCB
:10334000BBE78A42B7D13F6817F4406708D0B7F5AA
:10335000806FF3D0B7F5006FDFD0B7F5406FDAE7D5
:10336000AC46AAE74FF0080CA7E701F0E3F9B5E790
:103370001846B5E75008002110EB062051EB166106
:10338000002301F0BFFEA0F54076DFF8A472BE4234
:1033900037D22168C86035E001F003FA65E701F033
:1033A000C9F962E7184662E7BCF1000F0CD0BCF126
:1033B000010F1ED0BCF1020F09D0BCF1040F1BD0CD
:1033C000BCF1080F1BD01CE001F0E3F9D0B1626A38
:1033D00036F812306168B0FBF3F000EB5100B0FB3F
:1033E000F1F0A0F11001B9420BD2226880B2D06096
:1033F00008E001F0D6F9E9E701F09CF9E6E71846A4
:10340000E5E7012504F168000121002341800180E6
:103410008360C3602846F2BD90F82810CA0706D51D
:1034200002685368C16A23F400330B43536090F879
:1034300028108A0706D502685368016B23F480338D
:103440000B43536090F828104A0706D5026853686A
:10345000416B23F480230B43536090F828100A0734
:1034600006D502685368816B23F400430B43536015
:1034700090F82810CA0606D502689368C16B23F439
:1034800080530B43936090F828108A0606D5026893
:103490009368016C23F400530B43936090F8281059
:1034A0004A0610D502685368416C23F480130B431D
:1034B0005360436CB3F5801F05D15368816C23F4CE
:1034C000C0030B43536090F828100A0606D5016824
:1034D0004A68C06C22F4002202434A607047F8B583
:1034E000044604F180050020E8606FF07E47FEF797
:1034F00075FF0646206801680A0708D5009733461D
:1035000000224FF40011204600F018F860B920683E
:1035100001684A070AD50097334600224FF480011C
:10352000204600F00BF808B10320F2BD20206860AF
:103530002021A9600020E0662870F2BD2DE9F0414D
:10354000069C05460E4690461F462868C1693140D4
:10355000B1420CBF01200020404529D114F1010FD8
:10356000F3D0FEF73BFFC01B844200D34CB900F000
:1035700029F800F032F8FCD100F01DF800210170AC
:1035800014E0286801684A07DFD5C1690805DCD561
:103590002A684FF40061116200F014F800F01DF881
:1035A000FCD100F008F8C16000220270032000E0A6
:1035B0000020BDE8F08105F180002021416020223B
:1035C00082607047286850E8001F024621F4D071DD
:1035D00042E800100028F5D17047286800F1080182
:1035E00051E8001F490800F10803490043E80010B2
:1035F00000287047010002000400060008000A00CD
:103600000C0010002000400080000001F369FFCF93
:1036100000800040FFF4FF11003801408810024094
:103620000024F4000044004000480040004C0040EA
:1036300000FD0F0010B500F180010A78012A01D1C8
:10364000022010BD01220A7024234B600268136817
:1036500014686408640014600022426623F000537A
:103660000068036020224A6000230B70002010BD18
:1036700070B500F01FF801D1022070BD00F020F8F5
:1036800022F0604209E070B500F014F801D1022088
:1036900070BD00F015F822F0606211438160204691
:1036A00000F01CF8206806602021696000222A7062
:1036B000002070BD044604F1800528780128704779
:1036C0000120287024226A60206806680268520877
:1036D00052000260206882687047000030B5416E79
:1036E00011B90121012214E0016800BF0BA48A680E
:1036F000D1F808100BA3520E02F00702490F655CC7
:10370000A45C595C9A5CED00E40095FBF1F194FB3C
:10371000F2F268304180028030BD000001010103F7
:1037200007010000080402040801010138B5040083
:1037300001D1012032BD00F0B3F818B900F042F910
:1037400000F0ABFBFFE702206870211D206800F04D
:103750003DF9012028730121A970E8702971687171
:10376000A971E87129726872A972E8726970002003
:1037700032BD38B5040001D1012032BD00F090F80F
:1037800018B900F01FF901F040FDDCE770B5044600
:1037900004F13E0009B902780FE0042908BF42781D
:1037A0000BD0082908BF827807D00C2908BFC2783F
:1037B00003D010290CBF02794279012A01D00120DF
:1037C00070BD11B90222027014E0042902D1022254
:1037D00042700FE0082902D1022282700AE00C290F
:1037E00002D10222C27005E0102907BF0222027135
:1037F000022343712068012200F09AFA00F02EF8AB
:1038000018BF904208D088421FBFDFF88C50A842F2
:10381000DFF88860B04203D1456C45F4004545644B
:103820002068984218BFB0F1804F09D000F013F81B
:103830001CBF124DA84203D0904218BF884206D147
:1038400000F012F818BFB1F5803F02D0206800F0F8
:103850001BF8002070BD084B984270472068054B4C
:103860000849074A9842704781680A48014006297A
:1038700070470000002C0140000400400008004098
:1038800000340140004001400168024641F001015E
:1038900011607047070001000044014000480140EA
:1038A00004F13C0568787047002084F83C00284605
:1038B000704770B500F07FF801D1022070BD012083
:1038C00084F83C0052B1042A19D0082A29D00C2AC5
:1038D00038D0102A48D0142A57D068E0206800F069
:1038E000C8F82168886940F008008861886920F07C
:1038F000040088618A69306902438A6158E020685F
:1039000000F0F9F82068816941F400618161816902
:1039100021F4806181618169326941EA022181611A
:1039200046E0206800F01EF92168C86940F00800F0
:10393000C861C86920F00400C861CA6930690243DF
:10394000CA6135E0206800F046F92068C16941F499
:103950000061C161C16921F48061C161C1693269DD
:1039600041EA0221C16123E0206800F074F9216876
:10397000086D40F008000865086D20F00400086537
:103980000A6D306902430A6512E0206800F08DF983
:103990002068016D41F400610165016D21F48061D1
:1039A0000165016D326941EA0221016500E00125EE
:1039B000FFF77AFF70BD0446002594F83C0001280B
:1039C0000E46704700212970204670472DE9F041CE
:1039D000D0F800C0DFF83C73DFF83C33DFF8244355
:1039E000DFF82453DFF82463DFF830E3DFF82083C7
:1039F000B84218BFB0F1804F04D040451CBF70459D
:103A0000B0420DD14A682CF0700C42EA0C0CB8425E
:103A100018BFB0F1804F0BD0404518BF704507D09C
:103A2000B04218BFA84203D0A04218BF984204D1A8
:103A3000CA682CF4407C42EA0C0C4A692CF0800CD9
:103A400042EA0C0CC0F800C0B842D1F808C0C0F877
:103A50002CC00A68826218BFB04204D0A8421CBFC2
:103A6000A042984201D10969016301224261BDE887
:103A7000F0812DE9F041026ADFF89882DFF8847264
:103A8000DFF884C2DFF884E2520852000262066A5C
:103A900044688569DFF888220B6815408A6826F03B
:103AA00002061D431643DFF87032404518BF7045CB
:103AB00004D060451CBFB84298420DD1CA6826F0B8
:103AC0000806164326F00406404518BF704505D089
:103AD000604518BFB84201D0984205D14B698A6948
:103AE00024F440741C431443446085614968416375
:103AF0000662BDE8F081F0B5026A22F010020262AF
:103B0000056A4368846900F09EF825F0200545EABF
:103B1000021500F094F818BF904208D1CF6825F044
:103B2000800545EA0715B04225F040050DD09042CA
:103B30001CBFDFF8D421904207D0DFF8C861B04243
:103B40001CBFDFF8D421904206D14E698A6923F464
:103B50004063164343EA8603436084614968816396
:103B60000562F0BDF0B5026ADFF8B43122F480726C
:103B70000262066A4468C5690A6826F400761D4038
:103B80008B6846EA03261543624B604A984218BF89
:103B9000904208D1CF6826F4006646EA072698428C
:103BA00026F480660AD090421CBF574A904205D046
:103BB000544B98421CBF584A904206D14B698A69BF
:103BC00024F44054134344EA03144460C561496833
:103BD000C1630662F0BDF0B5026A22F4805202624F
:103BE000056A4368C46900F02EF825F4005545EADB
:103BF000023500F024F818BF904208D1CF6825F4B0
:103C0000004545EA0735B04225F480450AD0904288
:103C10001CBF3D4A904205D03A4EB0421CBF3E4ABE
:103C2000904206D14E698A6923F44043164343EA21
:103C300086134360C461496801640562F0BD354E76
:103C4000324AB0427047374A0E6814408A6844EAE4
:103C500006247047000070B5026A334B22F48032AC
:103C60000262046A4568066D0A681E4016438B6846
:103C7000284A24F4003444EA034490421CBF234BF6
:103C8000984207D0204A90421FBF1E4B9842224ABA
:103C9000904204D14A6925F4803545EA0225456001
:103CA000066549688164046270BD70B5026A22F4D9
:103CB00080120262036A4468056D1C4A0E68154052
:103CC00045EA06258A68134E23F4001343EA02539B
:103CD000B0421CBF0D4A904207D00B4EB0421FBFEE
:103CE000084A90420C4EB04204D14A6924F4802420
:103CF00044EA8224446005654968C164036270BD7A
:103D00000000000000440140004001400034014038
:103D100000040040002C0140004801400008004021
:103D20008CFFFEFFFF8CFFFE8FFFFEFFFF8FFFFE6D
:103D300010B501F01F01036A01248C40A343036204
:103D400002FA01F1036A1943016210BDF0B590F85F
:103D50003C20012A01D10220F0BD012280F83C2044
:103D6000CC688B684A680568224F234E24F440745F
:103D70001C4324F4806414430B680A6924F400642F
:103D80001C4324F4805414434B690A6B24F40054FC
:103D90001C4324F4804414438B6924F4702444EAC3
:103DA0000344BD4218BFB54201BF24F08054CA6924
:103DB0001443BD4201D0B54214D18A6A0B6A24F47F
:103DC000700444EA025424F080741C434A6A24F0CC
:103DD00000741443BD4218BFB54203D1C96A24F030
:103DE00000540C436C64002280F83C200020F0BD9D
:103DF00000000000002C0140003401405D4882B00A
:103E0000816841F001018160816801F00101009148
:103E10000099026842F0805202600022006800F0BF
:103E2000805000900F2100986FF0010002B0FEF763
:103E300037B918B597B000F05AF800F088F8206844
:103E4000B0F1A04F27D14FF400414FF0005206913E
:103E5000159206A8FDF702FD08B1FEF701F94648E4
:103E6000016841F400510160026802F400520092BE
:103E70000099026842F0020202600121006800F02D
:103E800002000090032200983C4801910292002118
:103E9000039100F029F818B010BD81B000683849CE
:103EA000884209D13748026842F400320260006853
:103EB00000F400300090009801B0704710B586B053
:103EC00000F015F821682E4881420AD12A4801687D
:103ED00041F001010160402100F03EF8012100F0B5
:103EE00002F806B010BD059101A9FEF78DBA04468F
:103EF0001422002101A801F089B918B597B0FFF785
:103F0000F6FF00F024F820681F4988421DD10222E4
:103F100000210692089106A8FDF7A0FC08B1FEF763
:103F20009FF81548C16841F40031C160C16801F4CF
:103F3000003100910099026842F0010202600C21F8
:103F400000F00AF80721FFF7CEFF18B010BD442299
:103F5000002106A801F05AB9006800F001000090A5
:103F600002220098019102920021039104914FF0E6
:103F700090407047581002404C1002400004004826
:103F8000004401406010024000440040EFF305800F
:103F900000B16DE0DFF81011086810B901220A6065
:103FA00070474FF0FF30704780B5EFF3058000B1E8
:103FB0000FE0DFF8F4000168012909D1DFF8EC1007
:103FC00000220A700223036001F042FA002002BDC1
:103FD00002E06FF0050002BD4FF0FF3002BDF8B502
:103FE00084B000230393EFF30583002B3DD103003E
:103FF0003BD08025182600245AB3136803B11C4611
:1040000093691BB11E0004D0392E02D21379DF0749
:1040100001D500202AE0536903B19D08D2F80CC0F5
:10402000976887B1BCF15C0F1FD31269002A18BFD3
:10403000002B1AD001920B46029700962A46214681
:1040400001F0EEF810E0BCF1000F04BF1269002A85
:104050000BD103AB019300960B46AAB2214601F0A7
:1040600010F9012801D000200390039805B0F0BD9D
:104070006FF00500704710B5EFF3058111B16FF0D7
:10408000050403E0002408B101F0C8F9204610BD82
:10409000DFF87C004FF080510160BFF34F8FBFF31A
:1040A0006F8F704700000000903D00201FED00E082
:1040B0007CB500F025F87AB1002818BF00290FD090
:1040C00074B900946A4601F076FD012815D1009874
:1040D000A0B1FFF7DDFF11E0002818BF002902D1D1
:1040E0006FF003050AE00023224601F0CDFC012811
:1040F00004D014B16FF0010500E03546284676BDC6
:104100001C4600256FF00206EFF3058270470000A1
:1041100004ED00E080B501F0FBFE00B1FEE701F028
:1041200013FF00B1FEE762B601BD000030B53222D8
:10413000DFF88C30DFF88450DFF87C10012448B9B8
:1041400000F01DF820F48070286016D100F01EF8F1
:104150000CD412E0B0F5007F0AD100F010F840F462
:104160008070286009D100F011F806D5032030BD19
:104170000A68022060F34A220A60002030BD086805
:1041800000F4C060B0F5806F28687047086864F379
:104190004A2008601B68DFF82C405A43B2FBF4F059
:1041A000401C00E0401E4A69530501D50028F9D1A2
:1041B0004869410570470000007000408070004071
:1041C0001800002040420F002DE9F84304006DD094
:1041D0002078DFF8E865C10717D500F0D0F90CD1D9
:1041E00001F0030103290AD06068B0F5803F2AD1AD
:1041F000306840F48030306037E00828F4D130680F
:10420000810302D56068002850D02178880759D5ED
:1042100000F0B5F943D101F00301022941D0E06873
:1042200000286AD0316841F480713160FEF7D6F819
:104230000546306841055DD4FEF7D0F8401B0328E1
:10424000F7D3032091E1B0F5A02F306806D140F4F8
:1042500080203060316841F4803105E020F4803006
:104260003060316821F480213160606858B1FEF718
:10427000B5F8054630688103C7D4FEF7AFF8401B98
:104280006528F7D3DDE7FEF7A9F805463068810316
:10429000BBD5FEF7A3F8401B6528F7D3D1E7042868
:1042A000BDD13068410503D5E068002800F05A818F
:1042B00000F05DF9DFF81005006800F07BFD0028D4
:1042C00040F050812078DFF80475010734D560692B
:1042D0000028786821D040F001007860FEF77EF871
:1042E00005467868810727D4FEF778F8401B032835
:1042F000F7D3A6E700F03BF9E4E7306820F48070DC
:104300003060FEF76BF8054630684105DAD5FEF7F8
:1043100065F8401B0328F7D393E740084000786016
:10432000FEF75CF805467868810705D5FEF756F874
:10433000401B0328F7D384E72078410763D5B06D8D
:104340000025C10009D4B06D40F08050B065012552
:10435000B06D00F0805000900098DFF87484D8F8B9
:104360000000C10513D4D8F8000040F48070C8F8EC
:104370000000FEF733F88146D8F80000C10506D4E6
:10438000FEF72CF8A0EB09000328F5D359E7A06845
:10439000012804D1386840F00100386010E0052899
:1043A000386806D140F004003860396841F00101F6
:1043B00005E0400840003860396821F004013960A8
:1043C000A06841F2893860B1FEF708F88146386884
:1043D000810713D4FEF702F8A0EB09004045F6D39D
:1043E0002FE7FDF7FBFF81463868810706D5FDF70B
:1043F000F5FFA0EB09004045F6D322E71DB1B06DF3
:1044000020F08050B0652078810621D5A069002871
:10441000B8680ED040F00100B860FDF7DFFF054638
:10442000B868810714D4FDF7D9FF401B0328F7D3E0
:1044300007E740084000B860FDF7D0FF0546B868C0
:10444000810705D5FDF7CAFF401B0328F7D3F8E61F
:10445000E069002800F08880B16801F00C010C29A7
:1044600055D00228306820F0807030603AD1FDF7D6
:10447000B5FF05463068810105D5FDF7AFFF401B4C
:104480000328F7D3DDE6F068DFF84813226A084016
:10449000616A1043491E40EA0110226BA16A52086A
:1044A00040EA0120616B521E490840EA4250491E11
:1044B00040EA4160E16A40EAC160F060306840F083
:1044C00080703060F16841F08071F160FDF786FF27
:1044D00004463068810147D4FDF780FF001B0328A4
:1044E000F7D3AEE6F168DFF8F00289088900F160E1
:1044F000F1680140F160FDF771FF04463068810109
:1045000032D5FDF76BFF001B0328F7D399E601288E
:1045100028D0F068226A00F00301914201BF00F048
:10452000F001626A521EB1EB021F1BD1A26A00F4B5
:10453000FE41B1EB022F02BF00F07841E26AB1EB1D
:10454000C26F0FD1226B520800F4C001521EB1EBB2
:10455000425F07D1616B490800F0C060491EB0EBB3
:10456000416F01D0012000E00020BDE8F2837068B7
:10457000216920F0FE4040EA016070607047B06839
:10458000F16800F00C000C2870472DE9F84F044644
:104590000026002C6CD0DFF844723868894600F0A1
:1045A0000F00484506D200F0BFF8386800F00F0051
:1045B00048455DD12168DFF80452C80741F28938C7
:1045C00058D56068DFF818B203284FF0080A27D1E1
:1045D000286882014CD5EA68E868C0F30310401CE3
:1045E00002F00302032A0CBFDFF8F821DFF8D42120
:1045F000B2FBF0F2E868C0F306204243E868C0F37B
:104600004160401C4000B2FBF0F0584516D3AA6848
:1046100012F0F00F0DD0890710D5A06870B908E02E
:104620000228286822D1810322D500F083F858455A
:1046300004D3A8686AF30710A8608026A968606898
:10464000890840EA8101A960FDF7C8FE8246A86892
:10465000616800F00C00B0EB810F0BD0FDF7BEFEDF
:10466000A0EB0A004045F2D303205BE04105DCD417
:10467000012057E02068810714D5400703D5A968B9
:1046800041F4E061A9602078010704D5A9680720FA
:1046900060F30D21A960A968A06821F0F001014331
:1046A000A96005E0802E03D1A86820F0F000A86082
:1046B000386800F00F0081450FD200F035F8FDF7A3
:1046C0008DFE0646386800F00F00484505D0FDF71E
:1046D00085FE801B4045F5D3C6E72078410705D508
:1046E000AA68E06822F4E0620243AA602178080721
:1046F00006D5A968206921F4605141EAC001A9608A
:1047000000F018F8AA683849C2F30312895C2C4AF1
:1047100001F01F01C8401060BDE8F24F2A48006850
:1047200000F048BBBDE8F28F3968090949EA011178
:10473000396070472D49086800F00C00042801D149
:1047400020487047086800F00C00082801D125486F
:104750007047086800F00C000C2818D14A684868B7
:10476000C0F30310401C02F00302032A0CBF1D4AD1
:10477000144AB2FBF0F24868C0F30620424348688E
:10478000C0F34160401C4000B2FBF0F070470020D5
:1047900070470B48154A006813681549C3F3022295
:1047A00006E00748114A006813681149C3F3C222A2
:1047B000895C01F01F01C8407047000000100240F2
:1047C000180000200024F400100000209010024087
:1047D000007000400C809F01FFFFEEFE00200240B1
:1047E00001B4C40400127A001C72000808100240D0
:1047F000AC72000838B5294C294D002205F57A71B4
:10480000204600F042FC2946204600F049FC0020EA
:1048100032BD002070472028224A02D021280FD024
:104820001CE0087810704B78537088789070CB78C3
:10483000D370087910714B795371887990710DE0BC
:1048400013780B705078487093788B70D078C8705C
:1048500013790B715079487192798A7100207047F1
:1048600010B501460D4C204600F01AFC204600F021
:1048700036FC002010BD10B5084CD4F8BC320A46F6
:10488000D3F8141209B1012010BD0146204600F0F2
:10489000FCFB2046BDE8104000F00BBC8830002037
:1048A000081D0020883D00200020704741780078D6
:1048B00040EA0120704700002DE9F8430F4600242C
:1048C0000646387810F0600006F5277509D02028D4
:1048D00018BF40283ED1EA6993683046984704469D
:1048E00024E17978092935D8DFE811F0FD001601B7
:1048F000A2001001A20084000A00A200EC00A500A2
:10490000ADF800407888010A01296DD002295FD0F6
:10491000032925D006291BD0072904BF307C002895
:1049200018D1E9690A6B6846904707214170FA88F7
:10493000002A00F0F980BDF8001000291BD0914238
:1049400088BF1146ADF800100146BDF80020D9E03F
:10495000307C00286CD1E9694A6B68469047E6E7ED
:10496000C0B2052864D8DFE800F02B231B130B032B
:10497000A8698269002A5BD0307C69469047D6E7F7
:10498000A8694269002A53D0307C69469047CEE737
:10499000A8690269002A4BD0307C69469047C6E777
:1049A000A869C268002A43D0307C69469047BEE7B8
:1049B000A8698268002A3BD0307C69469047B6E7F8
:1049C000A8694268002A33D0307C69469047AEE738
:1049D000307CE9690028684603D18A6A9047022141
:1049E000A4E7CA6A9047FAE7AA69307C1368694667
:1049F00098479CE7B888002804BFF888002817D19A
:104A00007888802814D200F07F08287803280FD0F7
:104A100085F8028041463046FCF7F4F900F095F83D
:104A2000B8F1000F07BF01212970022028707DE036
:104A300000F08EF87AE0DFF8FC90788889F80000C2
:104A4000A04699F80040022C03D300F081F803241B
:104A50006CE0287802281AD0032829D134B9022022
:104A600028700021716000F06DF81EE071688C42C2
:104A70001BD000F066F800F05FF85FEA000814D081
:104A800000F066F8716800F05CF802200BE064B199
:104A900000F052F85FEA000802D000F059F80FE089
:104AA00000F053F8032028700AE000F04EF807E009
:104AB00000F04EF899F8001000F044F84FF00308A9
:104AC000444633E0F8880128B2D12978491E0129EB
:104AD00004D9891EACD10122311D13E0B46001223A
:104AE00006F108010EE02878401E0228A0D8FA88B6
:104AF000022A9DD10121F160A86808B10321F1606B
:104B000006F10C01304600F024F90FE07888012806
:104B10000CD10121A96007E02878401E022887D81F
:104B20007A88012A02D1AC6000F00FF82046BDE877
:104B3000F2830000E93C0020746021463046FDF716
:104B40001FBBC9B23046FDF725BB304600F023B984
:104B500039463046CFE070B50E4604463078002521
:104B600010F060001CBF2028402815D104F52772E2
:104B70001078401E02280FD83379022B0CD2D2694C
:104B80009368204698470546F08840B9280006D12A
:104B9000204600F000F902E0204600F0ACF828467C
:104BA00070BD2DE9F0410E46804631783079002401
:104BB00011F0600108F5277704D0202939D0402969
:104BC00064D136E0717800293AD0012914D0032944
:104BD0005CD13A78022A15D0032A57D1718839B9A5
:104BE000002818BF802803D0F18809B900F06AF8BE
:104BF000404600F0D0F84DE03978022902D0032970
:104C00000AD043E0002818BF80283FD000F05AF8AF
:104C1000802100F058F83DE0718800293AD110F069
:104C20007F0203D001464046FCF7D7F8404600F02B
:104C3000B2F8FA699368314640469847044629E03D
:104C4000142200F07F013F78514308EB0103022F4B
:104C500003F5AA7500F0800102D0032F0ED015E0F5
:104C6000002818BF802811D109B103F114052C6068
:104C700002222946404600F06CF80BE000F00F07D6
:104C800012FB07F2424441B1918C81B93146404652
:104C900000F031F82046BDE8F081B2F86411002937
:104CA000F4D0002818BF802804D1002008E003F1C8
:104CB0001405F6E701464046FCF795F800B10120DF
:104CC0002860D5E701464046FCF781B838B50D4667
:104CD000044628782070A81C697861702D1DFFF7A4
:104CE000E5FD60802846FFF7E1FDA080A81CFFF7E6
:104CF000DDFDE08031BD10B504468021FCF767F88A
:104D00002046BDE810400021FCF761B800280B46A2
:104D100000D1704770B50021044600E0491C14F82A
:104D2000015B002DFAD10906C90D891C118011788B
:104D3000197003225A70022207E010F8011BD4B246
:104D4000521C1955D6B2521C9D5501780029F4D138
:104D500070BD80B513460222C0F894228361C361FE
:104D600001E080B513460A460021FCF751F8002007
:104D700002BD80B513460322C0F8942200F5AC7240
:104D80001360536001E080B513460A460021FCF72A
:104D900045F8002002BD80B50421C0F8941200231C
:104DA0000022E1E780B50521C0F89412002300221B
:104DB000ECE7000070B50E4E0446B0680025A0B1C7
:104DC0004FF47A710B4AB1FBF0F11068B0FBF1F0CF
:104DD000FDF78FF948B9102C07D2002221464FF079
:104DE000FF30FDF75DF9746000E00125284670BDD5
:104DF0000C00002018000020F8B505464FF407709D
:104E0000FCF716F8040005F52F7602D13060022079
:104E1000F2BD346005F14C07287C40B94FF40073B3
:104E200000F033F8012028874FF4007305E0402399
:104E300000F02BF801202887402302220121284678
:104E4000FBF7B4FF0120A5F8780110217980082331
:104E5000032282212846FBF7A9FF012038807168D0
:104E60000A68904704F501710020086100224A6138
:104E7000287C00280CBF4FF4007340230A680121EE
:104E80002846FBF7CBFF0020F2BD022281212846F5
:104E9000FBF78CBF38B504468121FBF792FF04F184
:104EA00038050020288001212046FBF78AFF0020DA
:104EB000A4F8780182212046FBF783FF0020A88216
:104EC000E88204F52F74206838B16068416888472B
:104ED0002068FBF7BBFF00202060002032BDF8B542
:104EE000054605F527730E461C6A00218DF8001053
:104EF000ADF8021000270CB90320F2BD317811F093
:104F0000600024D020283ED1F2887078D2B1090602
:104F10000DD55B6AD3F808C02146E047F288082A1D
:104F200028BF072221462846FFF713FF30E004F58B
:104F300000710870F08848702146F2882846FFF713
:104F400018FF25E05B6A9C683146A04720E0707836
:104F500030B101281CD00A2809D00B2810D012E04B
:104F6000197803290FD102220DF1020104E018780B
:104F7000032808D1012269462846FFF7EAFE07E028
:104F80001878032804D031462846FFF7B4FE0327DB
:104F90003846F2BDF8B5044604F52F739E681D68C7
:104FA0000DB90320F2BD0F46142010FB07F004EBEF
:104FB000000CDCF8180080B128225743F219926BDC
:104FC000B0FBF2F602FB160038B9CCF8180000234B
:104FD00000222046FBF71CFF0BE005F502700022C3
:104FE000C2605B681B6923B10A46006805F504715D
:104FF00098470020F2BD70B500F52F752C680CB9EC
:10500000032070BD04F50176FBF70EFFB06004F5D8
:1050100003716A683068D3689847002070BD10B586
:1050200000F52F70016809B9032010BD4368002BFB
:105030001EBF01F500742078FF2804D062789B68B9
:105040009847FF202070002010BD432101800748B1
:10505000704743210180064870474321018005487D
:1050600070470A210180044870470000A400002016
:1050700060000020E80000201C00002009B9032087
:105080007047C0F8C01200207047D0F8BC0208B9C1
:105090000320704700F502700160826000207047B5
:1050A000D0F8BC0208B903207047C0F804120020F1
:1050B000704710B5D0F8BC12012209B9032010BD09
:1050C00001F50274E16841B9E260A168C162A368B8
:1050D00022688121FBF79CFE0022104610BD80B59E
:1050E000D0F8BC1209B9032002BDD1F80422017C1A
:1050F00000290CBF4FF4007340230121FBF78EFE03
:10510000002002BDD3BBD9B1B2F5803F5BD2022AE9
:105110001ED98C46B1FBF2F102FB11C31B0443EA1A
:105120001043B3FBF2FC02FB1C3380B240EA0343A2
:10513000B3FBF2F002FB103240EA0C400023704750
:10514000022A05D98446B0FBF2F002FB10C2704778
:105150004AB105D100F0010249085FEA300070470A
:1051600000220023704700F01FBF0B000200002147
:1051700000207047F7D3002200237047904271EB64
:10518000030CF2D370B5B1FA81F4B3FA83F52C1B9A
:10519000A340C4F1200532FA05F63343A2405FF084
:1051A0000046E64002E05B085FEA3202841A71EBD7
:1051B000030524BF204629467641F4D302000B00A4
:1051C0003000002170BD70B5B1FA81F4B2FA82F5F9
:1051D000C4F120046419B4F12006DAD3B2405FF0C0
:1051E0000044F440002502E052085FEA3303C61A87
:1051F00071EB020E24BF3046714664416D41F3D31A
:1052000002000B002000290070BD704710B5044655
:1052100010460A460146204600F0C8FE204610BD52
:10522000F0B585B050260B9D25B986F3118800F0A6
:1052300044FAFEE70C9C24B986F3118800F03DFA8D
:10524000FEE75C270097DDF800E0BEF15C0F04D0BC
:1052500086F3118800F031FAFEE7009E25630026F0
:10526000022584F8595004AF0A9D039602940197D1
:10527000009500F034F8204600F078F8049805B066
:10528000F0BD2DE9F8430646174684B08846994696
:10529000B80000F095FE05001CD05C2000F090FEE8
:1052A000040014D00020256384F859000390029470
:1052B0000D980C99019000914B463A464146304674
:1052C00000F00DF8204600F051F8012004E02846D7
:1052D00000F0FEFE4FF0FF3005B0BDE8F0832DE991
:1052E000F0470A9F81460C461546386B9A46A52220
:1052F000A900FDF755F8396B01EB8502101FC008B6
:105300004FEAC00808F0070007F1340554B1002146
:10531000625C6A54605C10B1491C1029F8D300200B
:10532000E87300E02870089E372E88BF3726099C56
:10533000FE62AE61E861C6F13806381D00F025FF57
:1053400007F1180000F021FF3F61BE617F6200207D
:105350002862002187F8581052464946404600F01E
:1053600051FF386004B12760BDE8F0872DE9F041B6
:1053700000F06BF8DFF80455DFF86485E86C401C3A
:10538000E8641426A86A28BBAC62E86C012829D11D
:10539000002706FB07F0404400F0EAFE7F1C382F90
:1053A000F7D305F1740000F0E3FE05F188073846F5
:1053B00000F0DEFE284600F0DBFE05F1140000F0F0
:1053C000D7FE05F1380000F0D3FE05F17400E86265
:1053D0002F6307E0A86D28B9E06AA96ACA6A9042FB
:1053E00028BFAC62A86EE26A401C6064696D91429D
:1053F00038BF6A65A8665643211D08EB060000F019
:10540000C7FE00F08AFFA86D30B100F0A3F903D207
:1054100000F077FA00F051F9BDE8F08180B588B16D
:10542000DFF85824116F21B100F02EF900F045F992
:10543000FEE7116F491C1167002100F06DFA00F0C2
:1054400044F808B900F034F901BD044600F04CBF3F
:1054500080B586B000210591049103AA04A905A88E
:1054600000F0B4FF05980499029000220092019187
:105470000023039A0FF204510FF26130FFF7D0FEC0
:1054800098B100F0ADFF5021012810D181F31188AF
:1054900000F013F9DFF8D0044FF0FF31C1660122AC
:1054A00082650021016500F0CFFE07B000BD10F15C
:1054B000010FFAD181F3118800F0FFF8FEE7DFF861
:1054C000A804016F491C0167704770B5DFF8AC6331
:1054D000306F0024002520B900F043F800F0EDF80B
:1054E000FEE700F001FF306F401E3067306F00288C
:1054F00036D1F06CD0B933E0F068C46800F035F80C
:1055000000F0BEF9E06A716D814238BF7065142306
:10551000DFF858245843211D104400F039FEE06A9A
:10552000B16ACA6A904224BF0121316630680028FE
:10553000E2D10CB100F089F9F46D44B100F01DF82E
:1055400008B101203066641EF8D10020F065306E8D
:1055500030B1DFF81C144FF08050012500F0ACF89A
:10556000C8E1502181F31188704704F1180000F060
:1055700035BEDFF8F403006D70472DE9F843DFF81E
:10558000FC72386F0026002852D13C6D641C3C65CB
:1055900010D1F86A006820B1FFF7E3FF00F08DF842
:1055A000FEE7F86A396BF9623863786E401C7866FA
:1055B00000F04BF9F86EDFF8B49384424FF0140812
:1055C00027D31FE0F96AC868C568686884422DD38C
:1055D000281D00F003FEA86A18B105F1180000F0BC
:1055E000FDFDE86A796D814238BF786508FB00F0FF
:1055F000291D484400F0CCFDE86AB96ACA6A9042A5
:1056000028BF0126F86A00680028DBD14FF0FF317F
:10561000F966B86AC06A08FB00F859F80810022950
:1056200028BF0126386E30B1012604E0F866F0E7A5
:10563000F86D401CF86561E110B5DFF84022106F8D
:1056400010B10121116610BD1066516DDFF81C33D9
:1056500000E0491E14244C43185930B90029F8D1F0
:1056600000F012F800F029F8FEE7181900F108041C
:1056700043685B684360A34204BF5B684360406863
:10568000C3689362516510BD502080F31188704744
:1056900010B50C4620B9FFF7F7FF00F00EF8FEE753
:1056A00000F028F800F081FD2046BDE8104009E038
:1056B000DFF8BC124FF080500860BFF34F8FBFF38C
:1056C0006F8F7047012100F027B938B50D46144699
:1056D00020B9FFF7D9FFFFF7F0FFFEE700F00AF867
:1056E00000F056FD0CB14FF0FF3521462846BDE8CD
:1056F000344011E1DFF87022936A03F1180170471A
:1057000038B5C068C46824B9FFF7BEFFFFF7D5FFFE
:10571000FEE7FFF72AFFDFF85052286F40B900F08C
:10572000AFF800F013F838BF6A6500F0EFF802E058
:1057300004F11801284600F02BFD00F00BF803D20D
:1057400001212966012032BD002032BDE26A686D68
:1057500090427047A86AC16AE06A81427047DFF8E8
:1057600008124A6E0260096D41607047F8B5044640
:105770000D46502024B980F31188FFF79EFFFEE705
:1057800025B980F31188FFF798FFFEE700F0ACFD24
:10579000DFF8D401016D62682E688B1A16F1010FD3
:1057A0000ED0476ED4F800C0674501D091420BD2AD
:1057B000B34207D2F31A2B60416E2160006D606026
:1057C000002402E000202860012400F0A6FD20460D
:1057D000F2BDDFF8941101200866704770B5404CA7
:1057E000DFF8845111E000F07FFD286AC668301DA3
:1057F00000F0F4FCE86C401EE864686B401E6863CF
:1058000000F08BFD304600F009F8686B0028EAD103
:1058100021680229F9D3FFF74BFFF6E710B50446DC
:1058200094F8590040B9206B00F052FC2046BDE8C6
:10583000104000F04DBC10BD0128F7D00228FAD06E
:10584000FFF722FFFFF739FFFEE70C49C86A00683F
:1058500010B94FF0FF3203E0C86AC268D0684268EE
:10586000CA667047DFF80011886D08B901207047DB
:10587000086F08B90220704700207047003B0020E5
:10588000201D00F0ABBC38B50446002134B3DFF86E
:10589000D850A86A5022844204D082F31188FFF7BE
:1058A0000CFFFEE7206D20B982F31188FFF705FF9A
:1058B000FEE7E26AE36C401E9A4220650ED068B9AA
:1058C000FFF7DEFFE26CE262C2F13800A061696DB1
:1058D000914238BF6A6500F005F80121084632BDE3
:1058E000D82400201420DFF884304243211D98186A
:1058F00000F04EBC00F011FD284670BD3046BDE8FA
:10590000F2831B4A4FF08051116070471420174BEF
:105910004243211D98187047F8B5134D2F6D0C4662
:10592000A96A0646081D00F059FC16F1010F05D1C1
:1059300024B1A86A011D05F138001BE0A86AF61918
:105940004660BE42A86A05D2011D286BBDE8F4403E
:1059500000F02BBC011DE86A00F027FCE86E8642CF
:1059600038BFEE66F1BD0000003B0020D8240020C7
:1059700004ED00E0BDE8F44000F00ABC49444C45A9
:105980000000000070B504000D4602D100F074F86C
:10599000FEE700F0A9FC206CE16B226800FB01F33C
:1059A000491E484310441344A3600026A663E060E8
:1059B000626004F144004FF0FF310170417075B92D
:1059C0002069A0B104F11000FFF79AFE78B1DFF86A
:1059D000F0144FF08050086000F0D5F907E004F1B2
:1059E000100000F0C5FB04F1240000F0C1FB00F042
:1059F00094FC012070BD7CB51C46502320B983F374
:105A0000118800F0C0F9FEE724B983F3118800F093
:105A1000BAF9FEE72AB129B983F3118800F0B3F986
:105A2000FEE779B950250095009E502E0FD1009BBE
:105A300034B1069B012584F84650009400F00CF820
:105A4000204676BD83F3118800F09DF9FEE783F3CD
:105A5000118800F098F9FEE738B5049D1C4600292E
:105A60000CBF2D602A60E863296428460121FFF7F6
:105A700089FF85F84C4031BD502080F31188BFF379
:105A80004F8FBFF36F8F70472DE9F64782B0044602
:105A90001E46502714B900F074F9FEE75FEA010AC8
:105AA00001D1206C60B9022E02D1E06B01280AD12D
:105AB000FFF7D8FE50B9039840B100F062F9FEE755
:105AC00000F05FF9FEE700F05CF9FEE727460024EE
:105AD000DFF8EC834FF080592EE0039800284BD07C
